OUT: 8=FIX.4.4|9=93|35=A|49=MU9034900001|56=IFIX-EQ-UAT|34=1|52=20200113-184721.000000|108=2|141=Y|554=7317|98=0|10=094|
IN: 8=FIX.4.4|9=86|35=A|49=IFIX-EQ-UAT|56=MU9034900001|34=1|52=20200213-15:47:24.492113|98=0|108=2|141=Y|10=059|
IN: 8=FIX.4.4|9=69|35=0|49=IFIX-EQ-UAT|56=MU9034900001|34=2|52=20200213-15:47:24.492229|10=031|
IN: 8=FIX.4.4|9=91|35=1|49=IFIX-EQ-UAT|56=MU9034900001|34=3|52=20200213-15:47:25.492403|112=20200213-15:47:25|10=076|
OUT: 8=FIX.4.4|9=89|35=0|49=MU9034900001|56=IFIX-EQ-UAT|34=2|52=20200113-184724.000000|112=20200213-15:47:25|10=200|
OUT: 8=FIX.4.4|9=159|35=D|49=MU9034900001|56=IFIX-EQ-UAT|34=3|52=20200113-184724.000000|11=23|1=S00-00000255|386=1|336=TQBR|55=GAZA|54=1|60=20200113-184724.000000|38=1|40=2|44=260|10=074|
IN: 8=FIX.4.4|9=268|35=8|49=IFIX-EQ-UAT|56=MU9034900001|34=4|52=20200213-15:47:25.636903|37=NONE|11=23|17=23|8|NONE|150=8|39=8|103=6|1=S00-00000255|55=GAZA|54=1|38=1|40=2|44=260|336=TQBR|151=0|14=0|6=0|60=20200213-15:47:25|58=Duplicate ClOrdID (11) received|5979=20200213-15:47:25.636808|10=133|
IN: 8=FIX.4.4|9=69|35=0|49=IFIX-EQ-UAT|56=MU9034900001|34=5|52=20200213-15:47:27.492770|10=038|
IN: 8=FIX.4.4|9=91|35=1|49=IFIX-EQ-UAT|56=MU9034900001|34=6|52=20200213-15:47:28.492932|112=20200213-15:47:28|10=092|
OUT: 8=FIX.4.4|9=89|35=0|49=MU9034900001|56=IFIX-EQ-UAT|34=4|52=20200113-184727.000000|112=20200213-15:47:28|10=208|
IN: 8=FIX.4.4|9=69|35=0|49=IFIX-EQ-UAT|56=MU9034900001|34=7|52=20200213-15:47:30.493277|10=037|
IN: 8=FIX.4.4|9=91|35=1|49=IFIX-EQ-UAT|56=MU9034900001|34=8|52=20200213-15:47:31.493506|112=20200213-15:47:31|10=080|
OUT: 8=FIX.4.4|9=89|35=0|49=MU9034900001|56=IFIX-EQ-UAT|34=5|52=20200113-184730.000000|112=20200213-15:47:31|10=197|
IN: 8=FIX.4.4|9=69|35=0|49=IFIX-EQ-UAT|56=MU9034900001|34=9|52=20200213-15:47:33.492748|10=044|
IN: 8=FIX.4.4|9=92|35=1|49=IFIX-EQ-UAT|56=MU9034900001|34=10|52=20200213-15:47:34.492910|112=20200213-15:47:34|10=126|
OUT: 8=FIX.4.4|9=89|35=0|49=MU9034900001|56=IFIX-EQ-UAT|34=6|52=20200113-184733.000000|112=20200213-15:47:34|10=204|
IN: 8=FIX.4.4|9=70|35=0|49=IFIX-EQ-UAT|56=MU9034900001|34=11|52=20200213-15:47:36.493474|10=077|
IN: 8=FIX.4.4|9=92|35=1|49=IFIX-EQ-UAT|56=MU9034900001|34=12|52=20200213-15:47:37.492641|112=20200213-15:47:37|10=135|
OUT: 8=FIX.4.4|9=89|35=0|49=MU9034900001|56=IFIX-EQ-UAT|34=7|52=20200113-184736.000000|112=20200213-15:47:37|10=211|
IN: 8=FIX.4.4|9=70|35=0|49=IFIX-EQ-UAT|56=MU9034900001|34=13|52=20200213-15:47:39.492890|10=083|
IN: 8=FIX.4.4|9=92|35=1|49=IFIX-EQ-UAT|56=MU9034900001|34=14|52=20200213-15:47:40.493042|112=20200213-15:47:40|10=121|
OUT: 8=FIX.4.4|9=89|35=0|49=MU9034900001|56=IFIX-EQ-UAT|34=8|52=20200113-184739.000000|112=20200213-15:47:40|10=209|
IN: 8=FIX.4.4|9=70|35=0|49=IFIX-EQ-UAT|56=MU9034900001|34=15|52=20200213-15:47:42.493288|10=081|
IN: 8=FIX.4.4|9=92|35=1|49=IFIX-EQ-UAT|56=MU9034900001|34=16|52=20200213-15:47:43.493474|112=20200213-15:47:43|10=138|
OUT: 8=FIX.4.4|9=89|35=0|49=MU9034900001|56=IFIX-EQ-UAT|34=9|52=20200113-184742.000000|112=20200213-15:47:43|10=207|
IN: 8=FIX.4.4|9=70|35=0|49=IFIX-EQ-UAT|56=MU9034900001|34=17|52=20200213-15:47:45.493746|10=085|
IN: 8=FIX.4.4|9=92|35=1|49=IFIX-EQ-UAT|56=MU9034900001|34=18|52=20200213-15:47:46.493927|112=20200213-15:47:46|10=149|
OUT: 8=FIX.4.4|9=90|35=0|49=MU9034900001|56=IFIX-EQ-UAT|34=10|52=20200113-184745.000000|112=20200213-15:47:46|10=245|
IN: 8=FIX.4.4|9=70|35=0|49=IFIX-EQ-UAT|56=MU9034900001|34=19|52=20200213-15:47:48.494385|10=090|
IN: 8=FIX.4.4|9=92|35=1|49=IFIX-EQ-UAT|56=MU9034900001|34=20|52=20200213-15:47:49.494565|112=20200213-15:47:49|10=147|
OUT: 8=FIX.4.4|9=90|35=0|49=MU9034900001|56=IFIX-EQ-UAT|34=11|52=20200113-184748.000000|112=20200213-15:47:49|10=252|
IN: 8=FIX.4.4|9=70|35=0|49=IFIX-EQ-UAT|56=MU9034900001|34=21|52=20200213-15:47:51.494964|10=080|
IN: 8=FIX.4.4|9=92|35=1|49=IFIX-EQ-UAT|56=MU9034900001|34=22|52=20200213-15:47:52.495172|112=20200213-15:47:52|10=132|
OUT: 8=FIX.4.4|9=90|35=0|49=MU9034900001|56=IFIX-EQ-UAT|34=12|52=20200113-184751.000000|112=20200213-15:47:52|10=241|
IN: 8=FIX.4.4|9=70|35=0|49=IFIX-EQ-UAT|56=MU9034900001|34=23|52=20200213-15:47:54.495407|10=078|
IN: 8=FIX.4.4|9=92|35=1|49=IFIX-EQ-UAT|56=MU9034900001|34=24|52=20200213-15:47:55.495604|112=20200213-15:47:55|10=140|
OUT: 8=FIX.4.4|9=90|35=0|49=MU9034900001|56=IFIX-EQ-UAT|34=13|52=20200113-184754.000000|112=20200213-15:47:55|10=248|
